{
  "contractName": "SampleHack",
  "abi": [
    {
      "constant": true,
      "inputs": [],
      "name": "index",
      "outputs": [
        {
          "name": "",
          "type": "uint256"
        }
      ],
      "payable": false,
      "stateMutability": "view",
      "type": "function"
    },
    {
      "constant": true,
      "inputs": [],
      "name": "hackathonName",
      "outputs": [
        {
          "name": "",
          "type": "string"
        }
      ],
      "payable": false,
      "stateMutability": "view",
      "type": "function"
    },
    {
      "constant": true,
      "inputs": [],
      "name": "edition",
      "outputs": [
        {
          "name": "",
          "type": "uint256"
        }
      ],
      "payable": false,
      "stateMutability": "view",
      "type": "function"
    },
    {
      "constant": true,
      "inputs": [],
      "name": "finalIndex",
      "outputs": [
        {
          "name": "",
          "type": "uint256"
        }
      ],
      "payable": false,
      "stateMutability": "view",
      "type": "function"
    },
    {
      "constant": true,
      "inputs": [],
      "name": "totalParticipants",
      "outputs": [
        {
          "name": "",
          "type": "uint256"
        }
      ],
      "payable": false,
      "stateMutability": "view",
      "type": "function"
    },
    {
      "constant": false,
      "inputs": [
        {
          "name": "_name",
          "type": "string"
        }
      ],
      "name": "setHackName",
      "outputs": [],
      "payable": false,
      "stateMutability": "nonpayable",
      "type": "function"
    },
    {
      "constant": false,
      "inputs": [
        {
          "name": "_edition",
          "type": "uint256"
        }
      ],
      "name": "setEdition",
      "outputs": [],
      "payable": false,
      "stateMutability": "nonpayable",
      "type": "function"
    },
    {
      "constant": false,
      "inputs": [
        {
          "name": "_number",
          "type": "uint256"
        }
      ],
      "name": "setParticipants",
      "outputs": [],
      "payable": false,
      "stateMutability": "nonpayable",
      "type": "function"
    },
    {
      "constant": false,
      "inputs": [],
      "name": "tokenRequest",
      "outputs": [
        {
          "name": "tokentoRequest",
          "type": "uint256"
        }
      ],
      "payable": false,
      "stateMutability": "nonpayable",
      "type": "function"
    },
    {
      "constant": false,
      "inputs": [
        {
          "name": "add",
          "type": "address"
        },
        {
          "name": "_score",
          "type": "uint256"
        }
      ],
      "name": "setScores",
      "outputs": [],
      "payable": false,
      "stateMutability": "nonpayable",
      "type": "function"
    },
    {
      "constant": true,
      "inputs": [],
      "name": "getRegistered",
      "outputs": [
        {
          "name": "",
          "type": "bool"
        }
      ],
      "payable": false,
      "stateMutability": "view",
      "type": "function"
    },
    {
      "constant": true,
      "inputs": [],
      "name": "getState",
      "outputs": [
        {
          "name": "",
          "type": "bool"
        }
      ],
      "payable": false,
      "stateMutability": "view",
      "type": "function"
    },
    {
      "constant": false,
      "inputs": [
        {
          "name": "_add",
          "type": "address"
        },
        {
          "name": "_tokens",
          "type": "uint256"
        }
      ],
      "name": "allocateTokens",
      "outputs": [
        {
          "name": "",
          "type": "bool"
        }
      ],
      "payable": false,
      "stateMutability": "nonpayable",
      "type": "function"
    },
    {
      "constant": true,
      "inputs": [
        {
          "name": "_add",
          "type": "address"
        }
      ],
      "name": "getScore",
      "outputs": [
        {
          "name": "_score",
          "type": "uint256"
        }
      ],
      "payable": false,
      "stateMutability": "view",
      "type": "function"
    },
    {
      "constant": false,
      "inputs": [],
      "name": "newParticipant",
      "outputs": [
        {
          "name": "",
          "type": "bool"
        }
      ],
      "payable": false,
      "stateMutability": "nonpayable",
      "type": "function"
    },
    {
      "constant": false,
      "inputs": [],
      "name": "endRegistration",
      "outputs": [
        {
          "name": "",
          "type": "bool"
        }
      ],
      "payable": false,
      "stateMutability": "nonpayable",
      "type": "function"
    }
  ],
  "bytecode": "0x608060405273dd870fa1b7c4700f2bd7f44238821c26f73921486000806101000a81548173ffffffffffffffffffffffffffffffffffffffff021916908373ffffffffffffffffffffffffffffffffffffffff16021790555033600160006101000a81548173ffffffffffffffffffffffffffffffffffffffff021916908373ffffffffffffffffffffffffffffffffffffffff1602179055503480156100a557600080fd5b50610bc4806100b56000396000f3006080604052600436106100e6576000357c0100000000000000000000000000000000000000000000000000000000900463ffffffff1680631865c57d146100eb5780631f2444e51461011a5780632986c0e514610167578063328f4f2c146101925780634a8a62ab146102225780634f163eb6146102515780637a6543e2146102ba5780637ed6e45a146102e957806386ce0285146103145780638e98f86a146103795780638ed49ce2146103a45780639dd8ee1f146103cf578063a26dbf26146103fc578063c9a0a15f14610427578063cc52c16e14610456578063d47875d014610483575b600080fd5b3480156100f757600080fd5b506101006104da565b604051808215151515815260200191505060405180910390f35b34801561012657600080fd5b50610165600480360381019080803573ffffffffffffffffffffffffffffffffffffffff1690602001909291908035906020019092919050505061052e565b005b34801561017357600080fd5b5061017c610576565b6040518082815260200191505060405180910390f35b34801561019e57600080fd5b506101a761057c565b6040518080602001828103825283818151815260200191508051906020019080838360005b838110156101e75780820151818401526020810190506101cc565b50505050905090810190601f1680156102145780820380516001836020036101000a031916815260200191505b509250505060405180910390f35b34801561022e57600080fd5b5061023761061a565b604051808215151515815260200191505060405180910390f35b34801561025d57600080fd5b506102b8600480360381019080803590602001908201803590602001908080601f01602080910402602001604051908101604052809392919081815260200183838082843782019150505050505091929192905050506107d5565b005b3480156102c657600080fd5b506102cf6107ef565b604051808215151515815260200191505060405180910390f35b3480156102f557600080fd5b506102fe610843565b6040518082815260200191505060405180910390f35b34801561032057600080fd5b5061035f600480360381019080803573ffffffffffffffffffffffffffffffffffffffff169060200190929190803590602001909291905050506108f8565b604051808215151515815260200191505060405180910390f35b34801561038557600080fd5b5061038e6109ac565b6040518082815260200191505060405180910390f35b3480156103b057600080fd5b506103b96109b2565b6040518082815260200191505060405180910390f35b3480156103db57600080fd5b506103fa600480360381019080803590602001909291905050506109b8565b005b34801561040857600080fd5b506104116109c2565b6040518082815260200191505060405180910390f35b34801561043357600080fd5b5061043c6109c8565b604051808215151515815260200191505060405180910390f35b34801561046257600080fd5b5061048160048036038101908080359060200190929190505050610aa0565b005b34801561048f57600080fd5b506104c4600480360381019080803573ffffffffffffffffffffffffffffffffffffffff169060200190929190505050610aaa565b6040518082815260200191505060405180910390f35b6000600b60003373ffffffffffffffffffffffffffffffffffffffff1673ffffffffffffffffffffffffffffffffffffffff16815260200190815260200160002060009054906101000a900460ff16905090565b80600560008473ffffffffffffffffffffffffffffffffffffffff1673ffffffffffffffffffffffffffffffffffffffff168152602001908152602001600020819055505050565b60095481565b60028054600181600116156101000203166002900480601f0160208091040260200160405190810160405280929190818152602001828054600181600116156101000203166002900480156106125780601f106105e757610100808354040283529160200191610612565b820191906000526020600020905b8154815290600101906020018083116105f557829003601f168201915b505050505081565b600080600160009054906101000a900473ffffffffffffffffffffffffffffffffffffffff1673ffffffffffffffffffffffffffffffffffffffff163373ffffffffffffffffffffffffffffffffffffffff1614151561067957600080fd5b600090505b6004548110156107c557600660088281548110151561069957fe5b9060005260206000200160009054906101000a900473ffffffffffffffffffffffffffffffffffffffff1690806001815401808255809150509060018203906000526020600020016000909192909190916101000a81548173ffffffffffffffffffffffffffffffffffffffff021916908373ffffffffffffffffffffffffffffffffffffffff160217905550506001600b600060088481548110151561073c57fe5b9060005260206000200160009054906101000a900473ffffffffffffffffffffffffffffffffffffffff1673ffffffffffffffffffffffffffffffffffffffff1673ffffffffffffffffffffffffffffffffffffffff16815260200190815260200160002060006101000a81548160ff021916908315150217905550808060010191505061067e565b6000600981905550600191505090565b80600290805190602001906107eb929190610af3565b5050565b6000600a60003373ffffffffffffffffffffffffffffffffffffffff1673ffffffffffffffffffffffffffffffffffffffff16815260200190815260200160002060009054906101000a900460ff16905090565b60008060008090505b6007548110156108e0576005600060068381548110151561086957fe5b9060005260206000200160009054906101000a900473ffffffffffffffffffffffffffffffffffffffff1673ffffffffffffffffffffffffffffffffffffffff1673ffffffffffffffffffffffffffffffffffffffff1681526020019081526020016000205482019150808060010191505061084c565b600754828115156108ed57fe5b049150819250505090565b60008060009054906101000a900473ffffffffffffffffffffffffffffffffffffffff1673ffffffffffffffffffffffffffffffffffffffff163373ffffffffffffffffffffffffffffffffffffffff1614151561095557600080fd5b81600560008573ffffffffffffffffffffffffffffffffffffffff1673ffffffffffffffffffffffffffffffffffffffff168152602001908152602001600020600082825401925050819055506001905092915050565b60035481565b60075481565b8060048190555050565b60045481565b600060083390806001815401808255809150509060018203906000526020600020016000909192909190916101000a81548173ffffffffffffffffffffffffffffffffffffffff021916908373ffffffffffffffffffffffffffffffffffffffff1602179055505060016009600082825401925050819055506001600a60003373ffffffffffffffffffffffffffffffffffffffff1673ffffffffffffffffffffffffffffffffffffffff16815260200190815260200160002060006101000a81548160ff0219169083151502179055506001905090565b8060038190555050565b6000600560008373ffffffffffffffffffffffffffffffffffffffff1673ffffffffffffffffffffffffffffffffffffffff168152602001908152602001600020549050919050565b828054600181600116156101000203166002900490600052602060002090601f016020900481019282601f10610b3457805160ff1916838001178555610b62565b82800160010185558215610b62579182015b82811115610b61578251825591602001919060010190610b46565b5b509050610b6f9190610b73565b5090565b610b9591905b80821115610b91576000816000905550600101610b79565b5090565b905600a165627a7a72305820b71348513a1e1ff2927d399a17be08b1af708263eef1dbbe93b70db10307d05b0029",
  "source": "pragma solidity ^0.4.24;\n\ncontract SampleHack{\n\n    address judge=0xdd870fa1b7c4700f2bd7f44238821c26f7392148;\n    address organiser=msg.sender;\n    string public hackathonName;\n    uint public edition;\n    uint public totalParticipants;\n\n    mapping (address => uint) particpantScores;\n    address[] finalParticipants;\n    uint public finalIndex;\n\n    address[] participants;\n    uint public index;\n\n    mapping (address=>bool) registered;\n    mapping(address=>bool) isIn;\n\n    function setHackName(string _name) public{\n        hackathonName=_name;\n    }\n\n    function setEdition(uint _edition) public {\n        edition=_edition;\n    }\n\n    function setParticipants(uint _number) public {\n        totalParticipants=_number;\n    }\n    function tokenRequest() public returns(uint tokentoRequest){\n       uint temp;\n       for(uint i=0; i<finalIndex;i++){\n           temp+=(particpantScores[finalParticipants[i]]);\n       }\n       temp=temp/finalIndex;\n       return temp;\n    }\n\n    function setScores(address add,uint _score) public{\n        particpantScores[add]=_score;\n    }\n\n    // only organiser\n    function getRegistered () public view returns (bool){\n       return registered[msg.sender];\n    }\n    function getState () public view returns (bool){\n       return isIn[msg.sender];\n    }\n\n    // to do // only judges\n    function allocateTokens (address _add, uint _tokens) public returns (bool){\n        require(msg.sender==judge);\n        particpantScores[_add]+=_tokens;\n        return true;\n    }\n\n    function getScore(address _add) public view returns (uint _score){\n        return particpantScores[_add];\n    }\n\n    function newParticipant() public returns (bool){\n        participants.push(msg.sender);\n        index+=1;\n        registered[msg.sender]=true;\n        return true;\n    }\n\n    // TO DO\n    function endRegistration() public returns(bool){\n        require(msg.sender==organiser);\n        for(uint i=0;i<totalParticipants;i++){\n          finalParticipants.push(participants[i]);\n          isIn[participants[i]]=true;\n        }\n        index=0;\n        return true;\n\n    }\n\n    // only judges\n    /*\n    function distributePrize() public returns(bool){\n        require(msg.sender==organiser);\n        address first;\n        address second;\n        address third;\n        if(finalIndex>0){\n        first=finalParticipants[0];}\n        if(finalIndex>1){\n        if(finalParticipants[])\n        second=finalParticipants[1];}\n        if(finalIndex>2){\n        third=finalParticipants[2];}\n        if(finalIndex>3){\n       for(uint i=3; i<finalIndex;i++){\n           if(particpantScores[third]<particpantScores[finalParticipants[i]]){\n               if(particpantScores[second]<particpantScores[finalParticipants[i]]){\n                   if(particpantScores[first]<particpantScores[finalParticipants[i]]){\n                       first=finalParticipants[i];\n                   }\n                   else{\n                       second=finalParticipants[i];\n                   }\n               }\n               else{\n                   third=finalParticipants[i];\n               }\n           }\n       } }\n       particpantScores[first]+=50;\n       particpantScores[second]+=30;\n       particpantScores[third]+=15;\n       return true;\n    }*/\n\n}\n",
  "sourcePath": "/home/urja/HackInOut/hack/contracts/SampleHack.sol",
  "compiler": {
    "name": "solc",
    "version": "0.4.24+commit.e67f0147.Emscripten.clang"
  },
  "schemaVersion": "2.0.0",
  "updatedAt": "2018-10-14T09:00:10.762Z"
}